{
  "_format": "hh-sol-artifact-1",
  "contractName": "DocumentRegistry",
  "sourceName": "contracts/DocumentRegistry.sol",
  "abi": [
    {
      "anonymous": false,
      "inputs": [
        {
          "indexed": false,
          "internalType": "string",
          "name": "ipfsHash",
          "type": "string"
        },
        {
          "indexed": false,
          "internalType": "address",
          "name": "seller",
          "type": "address"
        },
        {
          "indexed": false,
          "internalType": "address",
          "name": "buyer",
          "type": "address"
        }
      ],
      "name": "DocumentRegistered",
      "type": "event"
    },
    {
      "anonymous": false,
      "inputs": [
        {
          "indexed": false,
          "internalType": "string",
          "name": "ipfsHash",
          "type": "string"
        },
        {
          "indexed": false,
          "internalType": "address",
          "name": "signer",
          "type": "address"
        },
        {
          "indexed": false,
          "internalType": "enum DocumentRegistry.Status",
          "name": "newStatus",
          "type": "uint8"
        }
      ],
      "name": "DocumentSigned",
      "type": "event"
    },
    {
      "inputs": [
        {
          "internalType": "string",
          "name": "",
          "type": "string"
        }
      ],
      "name": "documents",
      "outputs": [
        {
          "internalType": "string",
          "name": "ipfsHash",
          "type": "string"
        },
        {
          "internalType": "address",
          "name": "seller",
          "type": "address"
        },
        {
          "internalType": "address",
          "name": "buyer",
          "type": "address"
        },
        {
          "internalType": "address",
          "name": "intermediary",
          "type": "address"
        },
        {
          "internalType": "enum DocumentRegistry.Status",
          "name": "status",
          "type": "uint8"
        },
        {
          "internalType": "bool",
          "name": "exists",
          "type": "bool"
        }
      ],
      "stateMutability": "view",
      "type": "function"
    },
    {
      "inputs": [
        {
          "internalType": "string",
          "name": "_ipfsHash",
          "type": "string"
        }
      ],
      "name": "getStatus",
      "outputs": [
        {
          "internalType": "enum DocumentRegistry.Status",
          "name": "",
          "type": "uint8"
        }
      ],
      "stateMutability": "view",
      "type": "function"
    },
    {
      "inputs": [
        {
          "internalType": "string",
          "name": "_ipfsHash",
          "type": "string"
        },
        {
          "internalType": "address",
          "name": "_buyer",
          "type": "address"
        },
        {
          "internalType": "address",
          "name": "_intermediary",
          "type": "address"
        }
      ],
      "name": "registerDocument",
      "outputs": [],
      "stateMutability": "nonpayable",
      "type": "function"
    },
    {
      "inputs": [
        {
          "internalType": "string",
          "name": "_ipfsHash",
          "type": "string"
        }
      ],
      "name": "signDocument",
      "outputs": [],
      "stateMutability": "nonpayable",
      "type": "function"
    }
  ],
  "bytecode": "0x6080604052348015600f57600080fd5b506112f88061001f6000396000f3fe608060405234801561001057600080fd5b506004361061004c5760003560e01c806322b05ed2146100515780633040298a1461008157806330c986cd1461009d578063b3dd697b146100b9575b600080fd5b61006b60048036038101906100669190610a10565b6100ee565b6040516100789190610ad0565b60405180910390f35b61009b60048036038101906100969190610a10565b610125565b005b6100b760048036038101906100b29190610b49565b6104d2565b005b6100d360048036038101906100ce9190610a10565b610762565b6040516100e596959493929190610c61565b60405180910390f35b600080826040516100ff9190610d05565b908152602001604051809103902060030160149054906101000a900460ff169050919050565b600080826040516101369190610d05565b908152602001604051809103902090508060030160159054906101000a900460ff16610197576040517f08c379a000000000000000000000000000000000000000000000000000000000815260040161018e90610d68565b60405180910390fd5b8060020160009054906101000a900473ffffffffffffffffffffffffffffffffffffffff1673ffffffffffffffffffffffffffffffffffffffff163373ffffffffffffffffffffffffffffffffffffffff16148061024457508060030160009054906101000a900473ffffffffffffffffffffffffffffffffffffffff1673ffffffffffffffffffffffffffffffffffffffff163373ffffffffffffffffffffffffffffffffffffffff16145b610283576040517f08c379a000000000000000000000000000000000000000000000000000000000815260040161027a90610dd4565b60405180910390fd5b8060020160009054906101000a900473ffffffffffffffffffffffffffffffffffffffff1673ffffffffffffffffffffffffffffffffffffffff163373ffffffffffffffffffffffffffffffffffffffff160361038457600160038111156102ee576102ed610a59565b5b8160030160149054906101000a900460ff16600381111561031257610311610a59565b5b14610352576040517f08c379a000000000000000000000000000000000000000000000000000000000815260040161034990610e40565b60405180910390fd5b60028160030160146101000a81548160ff0219169083600381111561037a57610379610a59565b5b0217905550610482565b8060030160009054906101000a900473ffffffffffffffffffffffffffffffffffffffff1673ffffffffffffffffffffffffffffffffffffffff163373ffffffffffffffffffffffffffffffffffffffff160361048157600260038111156103ef576103ee610a59565b5b8160030160149054906101000a900460ff16600381111561041357610412610a59565b5b14610453576040517f08c379a000000000000000000000000000000000000000000000000000000000815260040161044a90610ed2565b60405180910390fd5b60038160030160146101000a81548160ff0219169083600381111561047b5761047a610a59565b5b02179055505b5b7f27df652d5f64ac705e9b8a1b19aa1bab7ac0cb733f178634f75b6fde6a866a1f82338360030160149054906101000a900460ff166040516104c693929190610ef2565b60405180910390a15050565b6000836040516104e29190610d05565b908152602001604051809103902060030160159054906101000a900460ff1615610541576040517f08c379a000000000000000000000000000000000000000000000000000000000815260040161053890610f7c565b60405180910390fd5b6040518060c001604052808481526020013373ffffffffffffffffffffffffffffffffffffffff1681526020018373ffffffffffffffffffffffffffffffffffffffff1681526020018273ffffffffffffffffffffffffffffffffffffffff168152602001600160038111156105ba576105b9610a59565b5b8152602001600115158152506000846040516105d69190610d05565b908152602001604051809103902060008201518160000190816105f991906111b2565b5060208201518160010160006101000a81548173ffffffffffffffffffffffffffffffffffffffff021916908373ffffffffffffffffffffffffffffffffffffffff16021790555060408201518160020160006101000a81548173ffffffffffffffffffffffffffffffffffffffff021916908373ffffffffffffffffffffffffffffffffffffffff16021790555060608201518160030160006101000a81548173ffffffffffffffffffffffffffffffffffffffff021916908373ffffffffffffffffffffffffffffffffffffffff16021790555060808201518160030160146101000a81548160ff021916908360038111156106fa576106f9610a59565b5b021790555060a08201518160030160156101000a81548160ff0219169083151502179055509050507f4ff0747895660c44d9d5c28a2e3c750eae7ffa9096b718b4a39f3b2c0cf311c283338460405161075593929190611284565b60405180910390a1505050565b60008180516020810182018051848252602083016020850120818352809550505050505060009150905080600001805461079b90610fcb565b80601f01602080910402602001604051908101604052809291908181526020018280546107c790610fcb565b80156108145780601f106107e957610100808354040283529160200191610814565b820191906000526020600020905b8154815290600101906020018083116107f757829003601f168201915b5050505050908060010160009054906101000a900473ffffffffffffffffffffffffffffffffffffffff16908060020160009054906101000a900473ffffffffffffffffffffffffffffffffffffffff16908060030160009054906101000a900473ffffffffffffffffffffffffffffffffffffffff16908060030160149054906101000a900460ff16908060030160159054906101000a900460ff16905086565b6000604051905090565b600080fd5b600080fd5b600080fd5b600080fd5b6000601f19601f8301169050919050565b7f4e487b7100000000000000000000000000000000000000000000000000000000600052604160045260246000fd5b61091d826108d4565b810181811067ffffffffffffffff8211171561093c5761093b6108e5565b5b80604052505050565b600061094f6108b6565b905061095b8282610914565b919050565b600067ffffffffffffffff82111561097b5761097a6108e5565b5b610984826108d4565b9050602081019050919050565b82818337600083830152505050565b60006109b36109ae84610960565b610945565b9050828152602081018484840111156109cf576109ce6108cf565b5b6109da848285610991565b509392505050565b600082601f8301126109f7576109f66108ca565b5b8135610a078482602086016109a0565b91505092915050565b600060208284031215610a2657610a256108c0565b5b600082013567ffffffffffffffff811115610a4457610a436108c5565b5b610a50848285016109e2565b91505092915050565b7f4e487b7100000000000000000000000000000000000000000000000000000000600052602160045260246000fd5b60048110610a9957610a98610a59565b5b50565b6000819050610aaa82610a88565b919050565b6000610aba82610a9c565b9050919050565b610aca81610aaf565b82525050565b6000602082019050610ae56000830184610ac1565b92915050565b600073ffffffffffffffffffffffffffffffffffffffff82169050919050565b6000610b1682610aeb565b9050919050565b610b2681610b0b565b8114610b3157600080fd5b50565b600081359050610b4381610b1d565b92915050565b600080600060608486031215610b6257610b616108c0565b5b600084013567ffffffffffffffff811115610b8057610b7f6108c5565b5b610b8c868287016109e2565b9350506020610b9d86828701610b34565b9250506040610bae86828701610b34565b9150509250925092565b600081519050919050565b600082825260208201905092915050565b60005b83811015610bf2578082015181840152602081019050610bd7565b60008484015250505050565b6000610c0982610bb8565b610c138185610bc3565b9350610c23818560208601610bd4565b610c2c816108d4565b840191505092915050565b610c4081610b0b565b82525050565b60008115159050919050565b610c5b81610c46565b82525050565b600060c0820190508181036000830152610c7b8189610bfe565b9050610c8a6020830188610c37565b610c976040830187610c37565b610ca46060830186610c37565b610cb16080830185610ac1565b610cbe60a0830184610c52565b979650505050505050565b600081905092915050565b6000610cdf82610bb8565b610ce98185610cc9565b9350610cf9818560208601610bd4565b80840191505092915050565b6000610d118284610cd4565b915081905092915050565b7f446f63756d656e74206e6f7420666f756e640000000000000000000000000000600082015250565b6000610d52601283610bc3565b9150610d5d82610d1c565b602082019050919050565b60006020820190508181036000830152610d8181610d45565b9050919050565b7f556e617574686f72697a65640000000000000000000000000000000000000000600082015250565b6000610dbe600c83610bc3565b9150610dc982610d88565b602082019050919050565b60006020820190508181036000830152610ded81610db1565b9050919050565b7f4e6f7420726561647920666f72206275796572207369676e6174757265000000600082015250565b6000610e2a601d83610bc3565b9150610e3582610df4565b602082019050919050565b60006020820190508181036000830152610e5981610e1d565b9050919050565b7f4e6f7420726561647920666f7220696e7465726d656469617279207369676e6160008201527f7475726500000000000000000000000000000000000000000000000000000000602082015250565b6000610ebc602483610bc3565b9150610ec782610e60565b604082019050919050565b60006020820190508181036000830152610eeb81610eaf565b9050919050565b60006060820190508181036000830152610f0c8186610bfe565b9050610f1b6020830185610c37565b610f286040830184610ac1565b949350505050565b7f446f63756d656e7420616c726561647920657869737473000000000000000000600082015250565b6000610f66601783610bc3565b9150610f7182610f30565b602082019050919050565b60006020820190508181036000830152610f9581610f59565b9050919050565b7f4e487b7100000000000000000000000000000000000000000000000000000000600052602260045260246000fd5b60006002820490506001821680610fe357607f821691505b602082108103610ff657610ff5610f9c565b5b50919050565b60008190508160005260206000209050919050565b60006020601f8301049050919050565b600082821b905092915050565b60006008830261105e7fffffffffffffffffffffffffffffffffffffffffffffffffffffffffffffffff82611021565b6110688683611021565b95508019841693508086168417925050509392505050565b6000819050919050565b6000819050919050565b60006110af6110aa6110a584611080565b61108a565b611080565b9050919050565b6000819050919050565b6110c983611094565b6110dd6110d5826110b6565b84845461102e565b825550505050565b600090565b6110f26110e5565b6110fd8184846110c0565b505050565b5b81811015611121576111166000826110ea565b600181019050611103565b5050565b601f8211156111665761113781610ffc565b61114084611011565b8101602085101561114f578190505b61116361115b85611011565b830182611102565b50505b505050565b600082821c905092915050565b60006111896000198460080261116b565b1980831691505092915050565b60006111a28383611178565b9150826002028217905092915050565b6111bb82610bb8565b67ffffffffffffffff8111156111d4576111d36108e5565b5b6111de8254610fcb565b6111e9828285611125565b600060209050601f83116001811461121c576000841561120a578287015190505b6112148582611196565b86555061127c565b601f19841661122a86610ffc565b60005b828110156112525784890151825560018201915060208501945060208101905061122d565b8683101561126f578489015161126b601f891682611178565b8355505b6001600288020188555050505b505050505050565b6000606082019050818103600083015261129e8186610bfe565b90506112ad6020830185610c37565b6112ba6040830184610c37565b94935050505056fea26469706673582212205206f0d65bce83aed6ae6d1dbc00feb20cfb6a03cbedfc1be1a4eb93ec11a6b764736f6c634300081c0033",
  "linkReferences": {},
  "deployedLinkReferences": {}
}