{
  "_format": "hh3-artifact-1",
  "contractName": "DocumentRegistry",
  "sourceName": "contracts/DocumentRegistry.sol",
  "abi": [
    {
      "anonymous": false,
      "inputs": [
        {
          "indexed": false,
          "internalType": "string",
          "name": "ipfsHash",
          "type": "string"
        },
        {
          "indexed": false,
          "internalType": "address",
          "name": "seller",
          "type": "address"
        },
        {
          "indexed": false,
          "internalType": "address",
          "name": "buyer",
          "type": "address"
        }
      ],
      "name": "DocumentRegistered",
      "type": "event"
    },
    {
      "anonymous": false,
      "inputs": [
        {
          "indexed": false,
          "internalType": "string",
          "name": "ipfsHash",
          "type": "string"
        },
        {
          "indexed": false,
          "internalType": "address",
          "name": "signer",
          "type": "address"
        },
        {
          "indexed": false,
          "internalType": "enum DocumentRegistry.Status",
          "name": "newStatus",
          "type": "uint8"
        }
      ],
      "name": "DocumentSigned",
      "type": "event"
    },
    {
      "inputs": [
        {
          "internalType": "string",
          "name": "",
          "type": "string"
        }
      ],
      "name": "documents",
      "outputs": [
        {
          "internalType": "string",
          "name": "ipfsHash",
          "type": "string"
        },
        {
          "internalType": "address",
          "name": "seller",
          "type": "address"
        },
        {
          "internalType": "address",
          "name": "buyer",
          "type": "address"
        },
        {
          "internalType": "address",
          "name": "intermediary",
          "type": "address"
        },
        {
          "internalType": "enum DocumentRegistry.Status",
          "name": "status",
          "type": "uint8"
        },
        {
          "internalType": "bool",
          "name": "exists",
          "type": "bool"
        }
      ],
      "stateMutability": "view",
      "type": "function"
    },
    {
      "inputs": [
        {
          "internalType": "string",
          "name": "_ipfsHash",
          "type": "string"
        }
      ],
      "name": "getStatus",
      "outputs": [
        {
          "internalType": "enum DocumentRegistry.Status",
          "name": "",
          "type": "uint8"
        }
      ],
      "stateMutability": "view",
      "type": "function"
    },
    {
      "inputs": [
        {
          "internalType": "string",
          "name": "_ipfsHash",
          "type": "string"
        },
        {
          "internalType": "address",
          "name": "_buyer",
          "type": "address"
        },
        {
          "internalType": "address",
          "name": "_intermediary",
          "type": "address"
        }
      ],
      "name": "registerDocument",
      "outputs": [],
      "stateMutability": "nonpayable",
      "type": "function"
    },
    {
      "inputs": [
        {
          "internalType": "string",
          "name": "_ipfsHash",
          "type": "string"
        }
      ],
      "name": "signDocument",
      "outputs": [],
      "stateMutability": "nonpayable",
      "type": "function"
    }
  ],
  "bytecode": "0x6080604052348015600e575f5ffd5b5061097e8061001c5f395ff3fe608060405234801561000f575f5ffd5b506004361061004a575f3560e01c806322b05ed21461004e5780633040298a1461007757806330c986cd1461008c578063b3dd697b1461009f575b5f5ffd5b61006161005c366004610619565b6100c4565b60405161006e9190610687565b60405180910390f35b61008a610085366004610619565b6100f8565b005b61008a61009a3660046106b6565b6102d2565b6100b26100ad366004610619565b61049c565b60405161006e9695949392919061073e565b5f5f826040516100d49190610791565b9081526040519081900360200190206003015460ff600160a01b9091041692915050565b5f5f826040516101089190610791565b908152604051908190036020019020600381015490915060ff600160a81b909104166101705760405162461bcd60e51b8152602060048201526012602482015271111bd8dd5b595b9d081b9bdd08199bdd5b9960721b60448201526064015b60405180910390fd5b60028101546001600160a01b0316331480610197575060038101546001600160a01b031633145b6101d25760405162461bcd60e51b815260206004820152600c60248201526b155b985d5d1a1bdc9a5e995960a21b6044820152606401610167565b60028101546001600160a01b03163314801561020d57506001600382810154600160a01b900460ff169081111561020b5761020b610653565b145b1561022c5760038101805460ff60a01b1916600160a11b179055610282565b60038101546001600160a01b03163314801561026757506002600382810154600160a01b900460ff169081111561026557610265610653565b145b156102825760038101805460ff60a01b1916600360a01b1790555b7f27df652d5f64ac705e9b8a1b19aa1bab7ac0cb733f178634f75b6fde6a866a1f82338360030160149054906101000a900460ff166040516102c6939291906107a7565b60405180910390a15050565b5f836040516102e19190610791565b9081526040519081900360200190206003015460ff600160a81b909104161561034c5760405162461bcd60e51b815260206004820152601760248201527f446f63756d656e7420616c7265616479206578697374730000000000000000006044820152606401610167565b6040805160c0810182528481523360208201526001600160a01b03848116828401528316606082015260016080820181905260a082015290515f90610392908690610791565b908152604051908190036020019020815181906103af908261085b565b5060208201516001820180546001600160a01b03199081166001600160a01b039384161790915560408401516002840180548316918416919091179055606084015160038085018054938416929094169182178455608086015193926001600160a81b03191690911790600160a01b90849081111561043057610430610653565b021790555060a0919091015160039091018054911515600160a81b0260ff60a81b199092169190911790556040517f4ff0747895660c44d9d5c28a2e3c750eae7ffa9096b718b4a39f3b2c0cf311c29061048f90859033908690610916565b60405180910390a1505050565b80516020818301810180515f825292820191909301209152805481906104c1906107d7565b80601f01602080910402602001604051908101604052809291908181526020018280546104ed906107d7565b80156105385780601f1061050f57610100808354040283529160200191610538565b820191905f5260205f20905b81548152906001019060200180831161051b57829003601f168201915b5050506001840154600285015460039095015493946001600160a01b03918216949082169350908116915060ff600160a01b8204811691600160a81b90041686565b634e487b7160e01b5f52604160045260245ffd5b5f82601f83011261059d575f5ffd5b813567ffffffffffffffff8111156105b7576105b761057a565b604051601f8201601f19908116603f0116810167ffffffffffffffff811182821017156105e6576105e661057a565b6040528181528382016020018510156105fd575f5ffd5b816020850160208301375f918101602001919091529392505050565b5f60208284031215610629575f5ffd5b813567ffffffffffffffff81111561063f575f5ffd5b61064b8482850161058e565b949350505050565b634e487b7160e01b5f52602160045260245ffd5b6004811061068357634e487b7160e01b5f52602160045260245ffd5b9052565b602081016106958284610667565b92915050565b80356001600160a01b03811681146106b1575f5ffd5b919050565b5f5f5f606084860312156106c8575f5ffd5b833567ffffffffffffffff8111156106de575f5ffd5b6106ea8682870161058e565b9350506106f96020850161069b565b91506107076040850161069b565b90509250925092565b5f81518084528060208401602086015e5f602082860101526020601f19601f83011685010191505092915050565b60c081525f61075060c0830189610710565b6001600160a01b038881166020850152878116604085015286166060840152905061077e6080830185610667565b82151560a0830152979650505050505050565b5f82518060208501845e5f920191825250919050565b606081525f6107b96060830186610710565b6001600160a01b0385166020840152905061064b6040830184610667565b600181811c908216806107eb57607f821691505b60208210810361080957634e487b7160e01b5f52602260045260245ffd5b50919050565b601f82111561085657805f5260205f20601f840160051c810160208510156108345750805b601f840160051c820191505b81811015610853575f8155600101610840565b50505b505050565b815167ffffffffffffffff8111156108755761087561057a565b6108898161088384546107d7565b8461080f565b6020601f8211600181146108bb575f83156108a45750848201515b5f19600385901b1c1916600184901b178455610853565b5f84815260208120601f198516915b828110156108ea57878501518255602094850194600190920191016108ca565b508482101561090757868401515f19600387901b60f8161c191681555b50505050600190811b01905550565b606081525f6109286060830186610710565b6001600160a01b039485166020840152929093166040909101529291505056fea2646970667358221220a8c2051ef8be91691c0d6899acba1f01c0806eb1645016045b6a2f759c9576e464736f6c634300081c0033",
  "linkReferences": {},
  "deployedLinkReferences": {},
  "immutableReferences": {},
  "inputSourceName": "project/contracts/DocumentRegistry.sol",
  "buildInfoId": "solc-0_8_28-36a3e9a51f0e2b862e5d08ca6e49d857a625258c"
}